:020000040800F2
:1000000000280020FD1600088D1600089316000831
:10001000991600089F160008A516000800000000A9
:10002000000000000000000000000000AB16000807
:10003000B716000800000000C3160008CF1600081D
:100040004517000845170008451700084517000820
:100050004517000845170008451700084517000810
:100060004517000845170008451700084517000800
:1000700045170008451700084517000845170008F0
:1000800045170008451700084517000845170008E0
:1000900045170008451700084517000845170008D0
:1000A00045170008451700084517000845170008C0
:1000B000DD1600084517000800000000451700087D
:1000C0004517000800000000000000004517000868
:1000D0000000000045170008451700080000000058
:1000E00045170008451700084517000800000000E4
:1000F0000000000000000000000000000000000000
:0C01000000000000000000005FF808F1A3
:10010C0010B5054C237833B9044B13B10448AFF345
:10011C0000800123237010BD40000020000000006F
:10012C006C2D000808B5034B1BB103490348AFF312
:10013C00008008BD00000000440000206C2D000869
:10014C0080B400AF064B01221A60064B01221A60E4
:10015C00054B01221A6000BFBD4680BC704700BF32
:10016C005C000020600000206400002080B400AF20
:10017C00064B1B68012B04D1044B00221A6001238F
:10018C0000E000231846BD4680BC70475C00002090
:10019C0080B400AF064B1B68012B04D1044B00222A
:1001AC001A60012300E000231846BD4680BC70474E
:1001BC006000002080B400AF064B1B68012B04D1FB
:1001CC00044B00221A60012300E000231846BD46B0
:1001DC0080BC70476400002080B500AF1F4B1B68CB
:1001EC001F4A13601F4B1B681C4A13604FF40051CD
:1001FC001D4801F08DFD03461A461A4B1A60184B28
:10020C001A68164B1B689A4226D1144B1A68154B68
:10021C001B689A4220D1154B1A68124B1B689A42E4
:10022C000ED0104B1B68114A13600E4B1B68002B31
:10023C0012D1FFF785FF0E4B42F210721A600BE0E1
:10024C000B4B1B68013B0A4A1360094B1B68002BC4
:10025C0002D1064B01221A6000BF80BD04000020B1
:10026C000000002008000020001001400C000020BD
:10027C003000002080B500AF1F4B1B681F4A136075
:10028C001F4B1B681C4A13604FF480411D4801F042
:10029C003FFD03461A461A4B1A60184B1A68164B48
:1002AC001B689A4226D1144B1A68154B1B689A424C
:1002BC0020D1154B1A68124B1B689A420ED0104B6A
:1002CC001B68114A13600E4B1B68002B12D1FFF7F1
:1002DC0037FF0E4B42F210721A600BE00B4B1B688F
:1002EC00013B0A4A1360094B1B68002B02D1064BD9
:1002FC0001221A6000BF80BD1400002010000020F5
:10030C0018000020001001401C00002030000020CC
:10031C0080B500AF1F4B1B681F4A13601F4B1B6837
:10032C001C4A13604FF400411D4801F0F1FC0346D8
:10033C001A461A4B1A60184B1A68164B1B689A42CD
:10034C0026D1144B1A68154B1B689A4220D1154BB9
:10035C001A68124B1B689A420ED0104B1B68114A3C
:10036C0013600E4B1B68002B12D1FFF7E9FE0E4BEE
:10037C0042F210721A600BE00B4B1B68013B0A4AED
:10038C001360094B1B68002B02D1064B01221A602B
:10039C0000BF80BD24000020200000202800002089
:1003AC00001001402C0000203000002080B500AF70
:1003BC00B44B1B68013B032B00F2ED8001A252F8F9
:1003CC0023F000BFE1030008150400081F05000816
:1003DC009B04000801224FF48071AB4801F0AFFC84
:1003EC0001224FF40071A84801F0A9FC01224FF43E
:1003FC008061A54801F0A3FCA24B02221A6041F2D5
:10040C00883001F021F8CDE000224FF480719E4835
:10041C0001F095FC01224FF400719B4801F08FFC18
:10042C0001224FF48061984801F089FC974B1B68BE
:10043C00012B06D1934B04221A6040F6B83001F020
:10044C0003F8FFF793FE0346012B06D18D4B1422C4
:10045C001A6042F2107000F0F7FFFFF799FE0346A6
:10046C00012B06D1874B14221A6042F2107000F057
:10047C00EBFFFFF79FFE0346012B40F08E80814B74
:10048C0014221A6042F2107000F0DEFF85E00122A7
:10049C004FF480717C4801F052FC01224FF4007142
:1004AC00794801F04CFC00224FF48061764801F051
:1004BC0046FC764B1B68012B06D1724B03221A604B
:1004CC004FF4FA6000F0C0FFFFF750FE0346012B1B
:1004DC0006D16C4B16221A6042F2107000F0B4FF79
:1004EC00FFF756FE0346012B06D1664B16221A6007
:1004FC0042F2107000F0A8FFFFF75CFE0346012BE0
:10050C004DD1604B16221A6042F2107000F09CFF25
:10051C0045E001224FF480715B4801F010FC002291
:10052C004FF40071584801F00AFC01224FF480612D
:10053C00554801F004FC554B1B68012B06D1514B5F
:10054C0002221A6041F2883000F07EFFFFF70EFEA7
:10055C000346012B06D14B4B15221A6042F2107048
:10056C0000F072FFFFF714FE0346012B06D1454B3A
:10057C0015221A6042F2107000F066FFFFF71AFEA7
:10058C000346012B0DD13F4B15221A6042F210701D
:10059C0000F05AFF05E000BF04E000BF02E000BF1E
:1005AC0000E000BF3A4B1B68013B032B00F2F880C4
:1005BC0001A252F823F000BFD50500082907000856
:1005CC00A50600080906000801224FF400612E4818
:1005DC0001F0B5FB01224FF480512B4801F0AFFB29
:1005EC0001224FF40051284801F0A9FB284B0422AA
:1005FC001A6040F6B83000F043FFD8E001224FF407
:10060C000061214801F09BFB01224FF480511E48F0
:10061C0001F095FB00224FF400511B4801F08FFBB9
:10062C001C4B1B68012B06D1194B03221A604FF48B
:10063C00FA6000F025FFFFF799FD0346012B06D168
:10064C00104B16221A6042F2107000F0FDFEFFF7FC
:10065C009FFD0346012B06D10A4B16221A6042F26B
:10066C00107000F0F1FEFFF7A5FD0346012B40F0E2
:10067C009980044B16221A6042F2107000F0E4FECE
:10068C0090E000BF680000200008014090000020AE
:10069C006C0000209400002001224FF400614548BA
:1006AC0001F04DFB00224FF48051424801F047FB12
:1006BC0001224FF400513F4801F041FB3E4B1B68B7
:1006CC00012B06D13D4B02221A6041F2883000F01A
:1006DC00D7FEFFF74BFD0346012B06D1384B1522F5
:1006EC001A6042F2107000F0AFFEFFF751FD0346A6
:1006FC00012B06D1324B15221A6042F2107000F019
:10070C00A3FEFFF757FD0346012B4DD12C4B1522B1
:10071C001A6042F2107000F097FE45E000224FF490
:10072C000061244801F00BFB01224FF48051214859
:10073C0001F005FB01224FF400511E4801F0FFFAB5
:10074C001D4B1B68012B06D11C4B04221A6040F672
:10075C00B83000F095FEFFF709FD0346012B06D1DA
:10076C00174B14221A6042F2107000F06DFEFFF766
:10077C000FFD0346012B06D1114B14221A6042F2D5
:10078C00107000F061FEFFF715FD0346012B0DD133
:10079C000B4B14221A6042F2107000F055FE05E06B
:1007AC0000BF04E000BF02E000BF00E000BF00BFDC
:1007BC0080BD00BF00080140940000206C000020A8
:1007CC006800002080B500AFB44B1B68013B122BB6
:1007DC0000F2CA8001A252F823F000BF35080008CD
:1007EC0075090008750900087509000875090008E5
:1007FC0075090008750900087509000875090008D5
:10080C00450800086508000885080008A3080008CA
:10081C00C1080008DF080008FD0800081B090008D3
:10082C0039090008570900089C4B0A221A604FF43A
:10083C007A7000F041FEACE0994BA422DA60994B3F
:10084C001B68012B40F09280944B0B221A604FF4E2
:10085C007A7000F031FE89E0914BF922DA60914B0D
:10086C001B68012B40F084808C4B0C221A604FF4D7
:10087C007A7000F021FE7BE0894BC022DA60894B54
:10088C001B68012B76D1854B0D221A604FF47A70C0
:10089C0000F012FE6EE0824BF922DA60814B1B688D
:1008AC00012B69D17D4B0E221A604FF47A7000F047
:1008BC0003FE61E07A4BC022DA607A4B1B68012B95
:1008CC005CD1764B0F221A604FF47A7000F0F4FD75
:1008DC0054E0734B9922DA60724B1B68012B4FD199
:1008EC006E4B10221A604FF47A7000F0E5FD47E071
:1008FC006B4BB022DA606B4B1B68012B42D1674B00
:10090C0011221A604FF47A7000F0D6FD3AE0644B75
:10091C00A422DA60634B1B68012B35D15F4B12228A
:10092C001A604FF47A7000F0C7FD2DE05C4BF92291
:10093C00DA605C4B1B68012B28D1584B13221A60D0
:10094C004FF47A7000F0B8FD20E0554BC022DA600D
:10095C00544B1B68012B1BD1504B0A221A604FF4CD
:10096C007A7000F0A9FD13E000BF12E000BF10E0A8
:10097C0000BF0EE000BF0CE000BF0AE000BF08E0C3
:10098C0000BF06E000BF04E000BF02E000BF00E0D3
:10099C0000BF454B1B68013B122B00F2D68001A215
:1009AC0052F823F0FD090008570B0008570B0008FC
:1009BC00570B0008570B0008570B0008570B000883
:1009CC00570B0008570B00080D0A00082D0A0008E9
:1009DC004D0A00086D0A00088B0A0008C10A0008BD
:1009EC00DF0A0008FD0A00081B0B0008390B000881
:1009FC002D4B0A221A604FF47A7000F079FDB9E0A1
:100A0C002A4B9922DA602A4B1B68012B40F09F80FD
:100A1C00254B0B221A604FF47A7000F069FD96E0BA
:100A2C00224BB022DA60224B1B68012B40F09180E4
:100A3C001D4B0C221A604FF47A7000F059FD88E0BF
:100A4C001A4BA422DA601A4B1B68012B40F08380EE
:100A5C00154B0D221A604FF47A7000F049FD7AE0C4
:100A6C00124BF922DA60124B1B68012B75D10E4B1D
:100A7C000E221A604FF47A7000F03AFD6DE00B4BC9
:100A8C00C022DA600A4B1B68012B68D1064B0F227F
:100A9C001A604FF47A7000F02BFD60E078000020B3
:100AAC0000080140980000207C000020000C014050
:100ABC009C000020304BA422DA60304B1B68012BC9
:100ACC004FD12F4B10221A604FF47A7000F010FDAA
:100ADC0047E0294BF922DA60284B1B68012B42D1E5
:100AEC00274B11221A604FF47A7000F001FD3AE0A6
:100AFC00214BC022DA60214B1B68012B35D1204BD6
:100B0C0012221A604FF47A7000F0F2FC2DE01A4BAE
:100B1C00F922DA60194B1B68012B28D1184B1322D0
:100B2C001A604FF47A7000F0E3FC20E0124BC02204
:100B3C00DA60124B1B68012B1BD1114B0A221A6075
:100B4C004FF47A7000F0D4FC13E000BF12E000BF49
:100B5C0010E000BF0EE000BF0CE000BF0AE000BFD9
:100B6C0008E000BF06E000BF04E000BF02E000BFE9
:100B7C0000E000BF00BF80BD000C01409C000020C5
:100B8C007C00002080B500AF00224FF48071084833
:100B9C0001F0D5F801224FF40071054801F0CFF8AF
:100BAC0001224FF48061024801F0C9F800BF80BDFA
:100BBC000008014080B500AF01224FF48071084855
:100BCC0001F0BDF800224FF40071054801F0B7F8B0
:100BDC0001224FF48061024801F0B1F800BF80BDE2
:100BEC000008014080B500AF01224FF48071084825
:100BFC0001F0A5F801224FF40071054801F09FF8AF
:100C0C0000224FF48061024801F099F800BF80BDCA
:100C1C000008014080B500AF00224FF40061084885
:100C2C0001F08DF801224FF48051054801F087F84E
:100C3C0001224FF40051024801F081F800BF80BD41
:100C4C000008014080B500AF01224FF40061084854
:100C5C0001F075F800224FF48051054801F06FF84F
:100C6C0001224FF40051024801F069F800BF80BD29
:100C7C000008014080B500AF01224FF40061084824
:100C8C0001F05DF801224FF48051054801F057F84E
:100C9C0000224FF40051024801F051F800BF80BD12
:100CAC000008014080B500AFBC4B1B68143B192BEE
:100CBC0000F2248101A252F823F000BF310D00088C
:100CCC00FD0D0008970D0008090F0008090F00081A
:100CDC00090F0008090F0008090F0008090F000888
:100CEC00090F0008090F0008090F0008090F000878
:100CFC00090F0008090F0008090F0008090F000868
:100D0C00090F0008090F0008090F0008610E000800
:100D1C007D0E0008990E0008B50E0008D10E0008D3
:100D2C00ED0E0008FFF72EFF9D4B1B68012B06D123
:100D3C009A4B02221A6041F2883000F085FBFFF7D3
:100D4C0015FA0346012B06D1944B14221A6042F279
:100D5C00107000F079FBFFF71BFA0346012B06D14C
:100D6C008E4B28221A6042F2107000F06DFBFFF7D8
:100D7C000FFA0346012B40F0C380884B29221A60DE
:100D8C0041F2883000F060FBBAE0FFF72BFF844B98
:100D9C001B68012B06D1814B04221A6041F288306A
:100DAC0000F052FBFFF7E2F90346012B06D17B4B17
:100DBC0016221A6042F2107000F046FBFFF7E8F9B9
:100DCC000346012B06D1754B2C221A6042F210708F
:100DDC0000F03AFBFFF7DCF90346012B40F0928060
:100DEC006E4B2D221A6041F2883000F02DFB89E009
:100DFC00FFF7E0FE6A4B1B68012B06D1674B032201
:100E0C001A6041F2883000F01FFBFFF7AFF9034680
:100E1C00012B06D1614B15221A6042F2107000F0C2
:100E2C0013FBFFF7B5F90346012B06D15B4B2A22C6
:100E3C001A6042F2107000F007FBFFF7A9F90346A5
:100E4C00012B61D1554B2B221A6041F2883000F0F6
:100E5C00FBFA59E0FFF796FE514B1B68012B55D15D
:100E6C004E4B02221A6041F2883000F0EDFA4DE050
:100E7C00FFF788FE4A4B1B68012B49D1474B0222D6
:100E8C001A6041F2883000F0DFFA41E0FFF792FE81
:100E9C00434B1B68012B3DD1404B03221A6041F29E
:100EAC00883000F0D1FA35E0FFF784FE3C4B1B682C
:100EBC00012B31D1394B03221A6041F2883000F0FA
:100ECC00C3FA29E0FFF78EFE354B1B68012B25D1A9
:100EDC00324B04221A6041F2883000F0B5FA1DE062
:100EEC00FFF780FE2E4B1B68012B19D12B4B0422D4
:100EFC001A6041F2883000F0A7FA11E000BF10E050
:100F0C0000BF0EE000BF0CE000BF0AE000BF08E02D
:100F1C0000BF06E000BF04E000BF02E000BF00E03D
:100F2C0000BF204B1B68143B192B00F2298101A236
:100F3C0052F823F0B50F0008811000081B100008B0
:100F4C008D1100088D1100088D1100088D110008FD
:100F5C008D1100088D1100088D1100088D110008ED
:100F6C008D1100088D1100088D1100088D110008DD
:100F7C008D1100088D1100088D1100088D110008CD
:100F8C008D110008E5100008011100081D11000862
:100F9C003911000855110008711100086800002073
:100FAC00900000206C000020FFF734FE7F4B1B6884
:100FBC00012B06D17E4B02221A6041F2883000F0E0
:100FCC005FFAFFF7D3F80346012B06D1784B1422B6
:100FDC001A6042F2107000F053FAFFF7D9F803468A
:100FEC00012B06D1724B28221A6042F2107000F0CD
:100FFC0047FAFFF7CDF80346012B40F0C3806C4B4A
:10100C0029221A6041F2883000F03AFABAE0FFF770
:10101C0031FE664B1B68012B06D1654B04221A600E
:10102C0041F2883000F02CFAFFF7A0F80346012BB0
:10103C0006D15F4B16221A6042F2107000F020FAB3
:10104C00FFF7A6F80346012B06D1594B2C221A6048
:10105C0042F2107000F014FAFFF79AF80346012BD5
:10106C0040F09280524B2D221A6041F2883000F0F1
:10107C0007FA89E0FFF7E6FD4C4B1B68012B06D104
:10108C004B4B03221A6041F2883000F0F9F9FFF75C
:10109C006DF80346012B06D1454B15221A6042F21E
:1010AC00107000F0EDF9FFF773F80346012B06D131
:1010BC003F4B2A221A6042F2107000F0E1F9FFF760
:1010CC0067F80346012B61D1394B2B221A6041F290
:1010DC00883000F0D5F959E0FFF754FD334B1B680D
:1010EC00012B55D1324B02221A6041F2883000F0AC
:1010FC00C7F94DE0FFF746FD2C4B1B68012B49D17E
:10110C002B4B02221A6041F2883000F0B9F941E011
:10111C00FFF750FD254B1B68012B3DD1244B0322BF
:10112C001A6041F2883000F0ABF935E0FFF742FD70
:10113C001E4B1B68012B31D11D4B03221A6041F24F
:10114C00883000F09DF929E0FFF74CFD174B1B6828
:10115C00012B25D1164B04221A6041F2883000F085
:10116C008FF91DE0FFF73EFD104B1B68012B19D1C9
:10117C000F4B04221A6041F2883000F081F911E023
:10118C0000BF10E000BF0EE000BF0CE000BF0AE0A3
:10119C0000BF08E000BF06E000BF04E000BF02E0B3
:1011AC0000BF00E000BF00BF80BD00BF9400002066
:1011BC006C00002080B400AF00BFBD4680BC7047FF
:1011CC0080B500AF00F0BAFA00F030F800F0B6F8D5
:1011DC0000F068F80E4801F003FA0E4B01221A6079
:1011EC000D4B01221A600D4B01221A600C4B01228F
:1011FC001A600C4B01221A600B4B01221A60FFF78C
:10120C00D5F8FFF74FFDFFF7DDFAFFF7D3FFF6E751
:10121C00A0000020680000206C000020700000205E
:10122C0074000020780000207C00002080B590B075
:10123C0000AF07F1180328220021184601F088FDA1
:10124C003B1D00221A605A609A60DA601A61022310
:10125C00BB610123BB621023FB6200237B6307F19C
:10126C001803184600F084FD0346002B01D000F053
:10127C00E5F80F237B600023BB600023FB60002399
:10128C003B6100237B613B1D0021184600F0F0FF01
:10129C000346002B01D000F0D1F800BF4037BD460B
:1012AC0080BD000080B586B000AF07F108030022B6
:1012BC001A605A609A60DA603B4600221A605A60E3
:1012CC001D4B4FF080421A601B4B41F63F725A6027
:1012DC00194B00229A60184B0A22DA60164B002236
:1012EC001A61154B00229A61134801F029F9034643
:1012FC00002B01D000F0A2F84FF48053BB6007F133
:10130C00080319460C4801F0BFFA0346002B01D024
:10131C0000F094F800233B6000237B603B461946A9
:10132C00054801F087FC0346002B01D000F086F83D
:10133C0000BF1837BD4680BDA000002080B588B026
:10134C0000AF07F1100300221A605A609A60DA604D
:10135C002E4B9B692D4A43F0100393612B4B9B69D9
:10136C0003F01003FB60FB68284B9B69274A43F092
:10137C0004039361254B9B6903F00403BB60BB68BA
:10138C00224B9B69214A43F0080393611F4B9B69D5
:10139C0003F008037B607B68002243F67F711C48D6
:1013AC0000F0CDFC00227F211A4800F0C8FC4FF45D
:1013BC0060433B6100237B610123BB6107F1100398
:1013CC001946154800F02AFB43F67F733B61012355
:1013DC007B610023BB610223FB6107F110031946FB
:1013EC000B4800F01BFB7F233B6101237B61002337
:1013FC00BB610223FB6107F110031946054800F09D
:10140C000DFB00BF2037BD4680BD00BF0010024061
:10141C0000080140000C01400010014080B582B072
:10142C0000AF786000F080F8FEF7D6FEFEF722FFE2
:10143C00FEF76EFF00BF0837BD4680BD80B400AF1D
:10144C0072B600BFFEE7000080B483B000AF7860D6
:10145C007B68084A82FB03129210DB17D31A064AE8
:10146C001360064B00221A6000BF0C37BD4680BCCF
:10147C00704700BF67666666800000209000002001
:10148C0080B483B000AF78607B68084A82FB03129B
:10149C009210DB17D31A064A1360064B00221A600F
:1014AC0000BF0C37BD4680BC704700BF67666666E0
:1014BC00840000209400002080B483B000AF7860DA
:1014CC007B68084A82FB03129210DB17D31A064A78
:1014DC001360064B00221A6000BF0C37BD4680BC5F
:1014EC00704700BF67666666880000209800002081
:1014FC0080B483B000AF78607B68084A82FB03122B
:10150C009210DB17D31A064A1360064B00221A609E
:10151C0000BF0C37BD4680BC704700BF676666666F
:10152C008C0000209C00002080B400AF214B1B6875
:10153C00002B0BDD1F4B1B68013B1E4A13601D4B20
:10154C001B68002B02DC1C4B01221A601B4B1B6816
:10155C00002B0BDD194B1B68013B184A1360174B12
:10156C001B68002B02DC164B01221A60154B1B6802
:10157C00002B0BDD134B1B68013B124A1360114B04
:10158C001B68002B02DC104B01221A600F4B1B68EE
:10159C00002B0BDD0D4B1B68013B0C4A13600B4BF6
:1015AC001B68002B02DC0A4B01221A6000BFBD46EF
:1015BC0080BC704780000020900000208400002038
:1015CC009400002088000020980000208C0000204F
:1015DC009C00002080B485B000AF154B9B69144A69
:1015EC0043F001039361124B9B6903F00103BB6051
:1015FC00BB680F4BDB690E4A43F08053D3610C4B35
:10160C00DB6903F080537B607B680A4B5B68FB6093
:10161C00FB6823F0E063FB60FB6843F08063FB60D6
:10162C00044AFB68536000BF1437BD4680BC70474A
:10163C00001002400000014080B584B000AF78601B
:10164C007B681B68B3F1804F13D10C4BDB690B4AE1
:10165C0043F00103D361094BDB6903F00103FB6029
:10166C00FB68002200211C2000F0A1F91C2000F0D6
:10167C00BAF900BF1037BD4680BD00BF0010024054
:10168C0080B400AFFEE780B400AFFEE780B400AFDB
:10169C00FEE780B400AFFEE780B400AFFEE780B495
:1016AC0000AF00BFBD4680BC704780B400AF00BF28
:1016BC00BD4680BC704780B400AF00BFBD4680BC47
:1016CC00704780B500AF00F07FF800BF80BD000010
:1016DC0080B500AF024800F0CFFF00BF80BD00BF57
:1016EC00A000002080B400AF00BFBD4680BC704796
:1016FC000C480D490D4A002302E0D458C450043361
:10170C00C4188C42F9D30A4A0A4C002301E0136036
:10171C000432A242FBD3FFF7E5FF01F0F5FAFFF725
:10172C004FFD70470000002040000020AC2D000849
:10173C0040000020EC000020FEE7000080B500AF68
:10174C00084B1B68074A43F010031360032000F09A
:10175C0023F90F2000F008F8FFF73CFF0023184690
:10176C0080BD00BF0020024080B582B000AF786021
:10177C00124B1A68124B1B7819464FF47A73B3FB51
:10178C00F1F3B2FBF3F3184600F03BF90346002BE0
:10179C0001D001230EE07B680F2B0AD80022796858
:1017AC004FF0FF3000F003F9064A7B68136000230A
:1017BC0000E0012318460837BD4680BD34000020E8
:1017CC003C0000203800002080B400AF054B1B7893
:1017DC001A46054B1B681344034A136000BFBD46F1
:1017EC0080BC70473C000020E800002080B400AFB3
:1017FC00024B1B681846BD4680BC7047E8000020B1
:10180C0080B485B000AF78607B6803F00703FB60A1
:10181C000C4BDB68BB60BA684FF6FF031340BB6030
:10182C00FB681A02BB68134343F0BF6343F40033F5
:10183C00BB60044ABB68D36000BF1437BD4680BC94
:10184C00704700BF00ED00E080B400AF044BDB68D4
:10185C001B0A03F007031846BD4680BC704700BF47
:10186C0000ED00E080B483B000AF0346FB7197F944
:10187C000730002B0BDBFB7903F01F02064997F9AD
:10188C0007305B09012000FA02F241F8232000BF67
:10189C000C37BD4680BC704700E100E080B483B0DB
:1018AC0000AF03463960FB7197F90730002B0ADB58
:1018BC003B68DAB20C4997F907301201D2B20B44EB
:1018CC0083F800230AE03B68DAB20849FB7903F09D
:1018DC000F03043B1201D2B20B441A7600BF0C3733
:1018EC00BD4680BC704700BF00E100E000ED00E0A9
:1018FC0080B489B000AFF860B9607A60FB6803F01F
:10190C000703FB61FB69C3F10703042B28BF042306
:10191C00BB61FB690433062B02D9FB69033B00E076
:10192C0000237B614FF0FF32BB6902FA03F3DA4309
:10193C00BB681A407B699A404FF0FF317B6901FA12
:10194C0003F3D9437B680B40134318462437BD4639
:10195C0080BC704780B582B000AF78607B68013B7B
:10196C00B3F1807F01D301230FE00A4A7B68013B6E
:10197C0053600F214FF0FF30FFF790FF054B002213
:10198C009A60044B07221A60002318460837BD469C
:10199C0080BD00BF10E000E080B582B000AF786081
:1019AC007868FFF72DFF00BF0837BD4680BD80B5B6
:1019BC0086B000AF0346B9607A60FB7300237B618D
:1019CC00FFF742FF78617A68B9687869FFF790FF92
:1019DC00024697F90F3011461846FFF75FFF00BF1C
:1019EC001837BD4680BD80B582B000AF0346FB7191
:1019FC0097F907301846FFF735FF00BF0837BD468B
:101A0C0080BD80B582B000AF78607868FFF7A2FF28
:101A1C00034618460837BD4680BD000080B48BB025
:101A2C0000AF7860396000237B6200233B6248E1A1
:101A3C0001227B6A02FA03F3FB613B681B68FA69BB
:101A4C001340BB61BA69FB699A4240F037813B682D
:101A5C005B68A34A93425ED0A14A934275D8A14ACF
:101A6C00934258D09F4A93426FD89F4A934252D088
:101A7C009D4A934269D89D4A93424CD09B4A9342CB
:101A8C0063D89B4A934246D0994A93425DD8122B15
:101A9C002AD8122B59D801A252F823F0231B000884
:101AAC00FD1A00080F1B0008511B0008571B0008EB
:101ABC00571B0008571B0008571B0008571B000832
:101ACC00571B0008571B0008571B0008571B000822
:101ADC00571B0008571B0008571B0008571B000812
:101AEC00051B0008191B0008824A934213D02CE0F6
:101AFC003B68DB683B6229E03B68DB6804333B6294
:101B0C0024E03B68DB6808333B621FE03B68DB6822
:101B1C000C333B621AE03B689B68002B02D1042318
:101B2C003B6213E03B689B68012B05D108233B62A9
:101B3C007B68FA691A6109E008233B627B68FA69E1
:101B4C005A6103E000233B6200E000BFBB69FF2B3E
:101B5C0001D87B6801E07B6804337B61BB69FF2B98
:101B6C0002D87B6A9B0002E07B6A083B9B003B61CE
:101B7C007B691A680F213B6901FA03F3DB431A40B6
:101B8C00396A3B6901FA03F31A437B691A603B68B3
:101B9C005B6803F08053002B00F09080564B9B69E0
:101BAC00554A43F001039361534B9B6903F00103C6
:101BBC00BB60BB68514A7B6A9B08023352F82330E6
:101BCC00FB607B6A03F003039B000F2202FA03F312
:101BDC00DB43FA681340FB607B68494A93420DD0A3
:101BEC007B68484A934207D07B68474A934201D1AD
:101BFC00022304E0032302E0012300E000237A6ABD
:101C0C0002F0030292009340FA681343FB603B49D5
:101C1C007B6A9B080233FA6841F823203B685B68B7
:101C2C0003F48033002B06D0384B1A683749BB6954
:101C3C0013430B6006E0354B1A68BB69DB43334931
:101C4C0013400B603B685B6803F40033002B06D039
:101C5C002E4B5A682D49BB6913434B6006E02B4B46
:101C6C005A68BB69DB43294913404B603B685B688E
:101C7C0003F48013002B06D0244B9A682349BB69CC
:101C8C0013438B6006E0214B9A68BB69DB431F4909
:101C9C0013408B603B685B6803F40013002B06D089
:101CAC001A4BDA681949BB691343CB6006E0174B32
:101CBC00DA68BB69DB4315491340CB607B6A01339F
:101CCC007B623B681A687B6A22FA03F3002B7FF471
:101CDC00AFAE00BF00BF2C37BD4680BC704700BF05
:101CEC000000321000003110000022100000211002
:101CFC000000121000001110001002400000014002
:101D0C0000080140000C014000100140000401409B
:101D1C0080B485B000AF78600B467B807B689A6896
:101D2C007B881340002B02D00123FB7301E00023BE
:101D3C00FB73FB7B18461437BD4680BC704780B4E0
:101D4C0083B000AF78600B467B8013467B707B784A
:101D5C00002B03D07A887B681A6103E07B881A0415
:101D6C007B681A6100BF0C37BD4680BC7047000011
:101D7C0080B586B000AF78607B68002B01D1012361
:101D8C006CE27B681B6803F00103002B00F087807A
:101D9C00924B5B6803F00C03042B0CD08F4B5B68ED
:101DAC0003F00C03082B12D18C4B5B6803F48033CB
:101DBC00B3F5803F0BD1894B1B6803F40033002B28
:101DCC006CD07B685B68002B68D1012346E27B6892
:101DDC005B68B3F5803F06D1804B1B687F4A43F4A8
:101DEC00803313602EE07B685B68002B0CD17B4B3F
:101DFC001B687A4A23F480331360784B1B68774A4C
:101E0C0023F4802313601DE07B685B68B3F5A02F7F
:101E1C000CD1724B1B68714A43F4802313606F4BD7
:101E2C001B686E4A43F4803313600BE06B4B1B68EA
:101E3C006A4A23F480331360684B1B68674A23F4A7
:101E4C00802313607B685B68002B13D0FFF7CEFCFC
:101E5C00386108E0FFF7CAFC02463B69D31A642BD1
:101E6C0001D90323FAE15D4B1B6803F40033002B0B
:101E7C00F0D014E0FFF7BAFC386108E0FFF7B6FCCD
:101E8C0002463B69D31A642B01D90323E6E1534B79
:101E9C001B6803F40033002BF0D100E000BF7B681B
:101EAC001B6803F00203002B63D04C4B5B6803F000
:101EBC000C03002B0BD0494B5B6803F00C03082B75
:101ECC001CD1464B5B6803F48033002B16D1434B7B
:101EDC001B6803F00203002B05D07B681B69012BE8
:101EEC0001D00123BAE13D4B1B6823F0F8027B685B
:101EFC005B69DB00394913430B603AE07B681B6973
:101F0C00002B20D0364B01221A60FFF76FFC386192
:101F1C0008E0FFF76BFC02463B69D31A022B01D990
:101F2C0003239BE12D4B1B6803F00203002BF0D025
:101F3C002A4B1B6823F0F8027B685B69DB0027499E
:101F4C0013430B6015E0264B00221A60FFF74EFC82
:101F5C00386108E0FFF74AFC02463B69D31A022BB2
:101F6C0001D903237AE11D4B1B6803F00203002BFC
:101F7C00F0D17B681B6803F00803002B3AD07B6818
:101F8C009B69002B19D0174B01221A60FFF72EFC0E
:101F9C00386108E0FFF72AFC02463B69D31A022B92
:101FAC0001D903235AE10D4B5B6A03F00203002BAA
:101FBC00F0D0012000F0A6FA1CE00A4B00221A60B7
:101FCC00FFF714FC38610FE0FFF710FC02463B6989
:101FDC00D31A022B08D9032340E100BF00100240A2
:101FEC0000004242800442429E4B5B6A03F00203B3
:101FFC00002BE9D17B681B6803F00403002B00F075
:10200C00A6800023FB75974BDB6903F08053002BF4
:10201C000DD1944BDB69934A43F08053D361914BC0
:10202C00DB6903F08053BB60BB680123FB758E4BEF
:10203C001B6803F48073002B18D18B4B1B688A4AE6
:10204C0043F480731360FFF7D1FB386108E0FFF7AE
:10205C00CDFB02463B69D31A642B01D90323FDE067
:10206C00814B1B6803F48073002BF0D07B68DB681A
:10207C00012B06D17B4B1B6A7A4A43F00103136296
:10208C002DE07B68DB68002B0CD1764B1B6A754A04
:10209C0023F001031362734B1B6A724A23F004038F
:1020AC0013621CE07B68DB68052B0CD16D4B1B6A43
:1020BC006C4A43F0040313626A4B1B6A694A43F08F
:1020CC00010313620BE0674B1B6A664A23F00103A2
:1020DC001362644B1B6A634A23F0040313627B682C
:1020EC00DB68002B15D0FFF781FB38610AE0FFF7A6
:1020FC007DFB02463B69D31A41F28832934201D9E7
:10210C000323ABE0574B1B6A03F00203002BEED00A
:10211C0014E0FFF76BFB38610AE0FFF767FB024640
:10212C003B69D31A41F28832934201D9032395E0DB
:10213C004C4B1B6A03F00203002BEED1FB7D012BF1
:10214C0005D1484BDB69474A23F08053D3617B6848
:10215C00DB69002B00F08180424B5B6803F00C03C1
:10216C00082B61D07B68DB69022B46D13F4B0022E8
:10217C001A60FFF73BFB386108E0FFF737FB0246BC
:10218C003B69D31A022B01D9032367E0354B1B683B
:10219C0003F00073002BF0D17B681B6AB3F5803F12
:1021AC0008D1304B5B6823F400327B689B682D4967
:1021BC0013434B602B4B5B6823F474127B68196AD6
:1021CC007B685B6A0B43274913434B60274B012207
:1021DC001A60FFF70BFB386108E0FFF707FB0246BC
:1021EC003B69D31A022B01D9032337E01D4B1B6823
:1021FC0003F00073002BF0D02FE01C4B00221A6070
:10220C00FFF7F4FA386108E0FFF7F0FA02463B6991
:10221C00D31A022B01D9032320E0124B1B6803F0C5
:10222C000073002BF0D118E07B68DB69012B01D126
:10223C00012313E00B4B5B68FB60FB6803F48032FB
:10224C007B681B6A9A4206D1FB6803F470127B68A8
:10225C005B6A9A4201D0012300E00023184618372C
:10226C00BD4680BD0010024000700040600042423C
:10227C0080B584B000AF786039607B68002B01D1E9
:10228C000123D0E06A4B1B6803F007033A689A42BB
:10229C0010D9674B1B6823F0070265493B68134351
:1022AC000B60634B1B6803F007033A689A4201D03A
:1022BC000123B8E07B681B6803F00203002B20D0DD
:1022CC007B681B6803F00403002B05D0594B5B683B
:1022DC00584A43F4E06353607B681B6803F00803BF
:1022EC00002B05D0534B5B68524A43F46053536048
:1022FC00504B5B6823F0F0027B689B684D4913439D
:10230C004B607B681B6803F00103002B40D07B689B
:10231C005B68012B07D1474B1B6803F40033002B80
:10232C0015D101237FE07B685B68022B07D1414B01
:10233C001B6803F00073002B09D1012373E03D4BA4
:10234C001B6803F00203002B01D101236BE0394B16
:10235C005B6823F003027B685B68364913434B6070
:10236C00FFF744FAF8600AE0FFF740FA0246FB6810
:10237C00D31A41F28832934201D9032353E02D4BF7
:10238C005B6803F00C027B685B689B009A42EBD1A4
:10239C00274B1B6803F007033A689A4210D2244B70
:1023AC001B6823F0070222493B6813430B60204B48
:1023BC001B6803F007033A689A4201D0012332E00C
:1023CC007B681B6803F00403002B08D0194B5B6877
:1023DC0023F4E0627B68DB68164913434B607B682F
:1023EC001B6803F00803002B09D0124B5B6823F425
:1023FC0060527B681B69DB000E4913434B6000F095
:10240C0021F802460B4B5B681B0903F00F030A49CA
:10241C00CB5C22FA03F3094A1360094B1B6818467C
:10242C00FFF7A2F9002318461037BD4680BD00BF48
:10243C000020024000100240942D000834000020BF
:10244C003800002090B48AB000AF2A4B3C1D0FCB53
:10245C0084E80F0040F201233B800023FB61002342
:10246C00BB6100237B6200237B6100233B62224B18
:10247C005B68FB61FB6903F00C03042B02D0082B97
:10248C0003D02DE01D4B3B622DE0FB699B0C03F050
:10249C000F0307F12802134413F8243C7B61FB69FA
:1024AC0003F48033002B13D0134B5B685B0C03F0ED
:1024BC00010307F12802134413F8283CBB617B6924
:1024CC000E4A02FB03F2BB69B2FBF3F37B6204E03E
:1024DC007B690B4A02FB03F37B627B6A3B6202E083
:1024EC00064B3B6200BF3B6A18462837BD4690BC82
:1024FC00704700BF842D00080010024000127A00C3
:10250C0000093D0080B485B000AF78600A4B1B68B1
:10251C000A4AA2FB03235B0A7A6802FB03F3FB6003
:10252C0000BFFB685A1EFA60002BF9D100BF00BF38
:10253C001437BD4680BC704734000020D34D621068
:10254C0080B582B000AF78607B68002B01D101238D
:10255C0041E07B6893F83D30DBB2002B06D17B6801
:10256C00002283F83C207868FFF766F87B6802222B
:10257C0083F83D207B681A687B6804331946104643
:10258C0000F06AFA7B68012283F846207B680122FE
:10259C0083F83E207B68012283F83F207B68012270
:1025AC0083F840207B68012283F841207B6801225C
:1025BC0083F842207B68012283F843207B68012248
:1025CC0083F844207B68012283F845207B68012234
:1025DC0083F83D20002318460837BD4680BD000017
:1025EC0080B485B000AF78607B6893F83D30DBB287
:1025FC00012B01D0012335E07B68022283F83D20BA
:10260C007B681B68DA687B681B6842F00102DA6041
:10261C007B681B68164A934209D07B681B68B3F130
:10262C00804F04D07B681B68124A934211D17B689F
:10263C001B689B6803F00703FB60FB68062B10D03C
:10264C007B681B681A687B681B6842F001021A6081
:10265C0007E07B681B681A687B681B6842F0010204
:10266C001A60002318461437BD4680BC704700BF63
:10267C00002C01400004004080B582B000AF7860AF
:10268C007B681B681B6903F00203022B22D17B6859
:10269C001B68DB6803F00203022B1BD17B681B68F1
:1026AC006FF002021A617B6801221A777B681B6843
:1026BC009B6903F00303002B03D0786800F0B1F999
:1026CC0005E0786800F0A4F9786800F0B3F97B684D
:1026DC0000221A777B681B681B6903F00403042B28
:1026EC0022D17B681B68DB6803F00403042B1BD12D
:1026FC007B681B686FF004021A617B6802221A77F0
:10270C007B681B689B6903F44073002B03D07868CB
:10271C0000F087F905E0786800F07AF9786800F045
:10272C0089F97B6800221A777B681B681B6903F0A8
:10273C000803082B22D17B681B68DB6803F00803B5
:10274C00082B1BD17B681B686FF008021A617B6831
:10275C0004221A777B681B68DB6903F00303002BE8
:10276C0003D0786800F05DF905E0786800F050F966
:10277C00786800F05FF97B6800221A777B681B6829
:10278C001B6903F01003102B22D17B681B68DB68DC
:10279C0003F01003102B1BD17B681B686FF0100229
:1027AC001A617B6808221A777B681B68DB6903F463
:1027BC004073002B03D0786800F033F905E078689B
:1027CC0000F026F9786800F035F97B6800221A775A
:1027DC007B681B681B6903F00103012B0ED17B681E
:1027EC001B68DB6803F00103012B07D17B681B68B6
:1027FC006FF001021A617868FEF710FE7B681B68A7
:10280C001B6903F08003802B0ED17B681B68DB688F
:10281C0003F08003802B07D17B681B686FF080026C
:10282C001A61786800F067FA7B681B681B6903F013
:10283C004003402B0ED17B681B68DB6803F0400320
:10284C00402B07D17B681B686FF040021A617868D7
:10285C0000F0F9F87B681B681B6903F02003202B40
:10286C000ED17B681B68DB6803F02003202B07D19B
:10287C007B681B686FF020021A61786800F032FAEE
:10288C0000BF0837BD4680BD80B584B000AF78600E
:10289C0039607B6893F83C30012B01D10223B3E003
:1028AC007B68012283F83C207B68022283F83D2060
:1028BC007B681B689B68FB60FB6823F07703FB60FD
:1028CC00FB6823F47F43FB607B681B68FA689A60A3
:1028DC003B681B68B3F5005F3ED0B3F5005F00F2B8
:1028EC008780B3F5805F00F08580B3F5805F7FD87B
:1028FC00702B1AD0702B7BD8602B50D0602B77D8D4
:10290C00502B3CD0502B73D8402B58D0402B6FD829
:10291C00302B64D0302B6BD8202B60D0202B67D879
:10292C00002B5CD0102B5AD062E07B6818683B6897
:10293C0099683B685A683B68DB6800F05CF97B6817
:10294C001B689B68FB60FB6843F07703FB607B684C
:10295C001B68FA689A604EE07B6818683B68996857
:10296C003B685A683B68DB6800F045F97B681B687C
:10297C009A687B681B6842F480429A603BE07B68F3
:10298C0018683B6859683B68DB681A4600F0BCF86D
:10299C007B681B685021184600F013F92BE07B680C
:1029AC0018683B6859683B68DB681A4600F0DAF82F
:1029BC007B681B686021184600F003F91BE07B68FC
:1029CC0018683B6859683B68DB681A4600F09CF84D
:1029DC007B681B684021184600F0F3F80BE07B681D
:1029EC001A683B681B681946104600F0EAF802E0CA
:1029FC0000BF00E000BF7B68012283F83D207B68AC
:102A0C00002283F83C20002318461037BD4680BDB9
:102A1C0080B483B000AF786000BF0C37BD4680BC7B
:102A2C00704780B483B000AF786000BF0C37BD46F0
:102A3C0080BC704780B483B000AF786000BF0C37A7
:102A4C00BD4680BC704780B483B000AF786000BFD7
:102A5C000C37BD4680BC704780B485B000AF786041
:102A6C0039607B681B68FB607B68254A934207D002
:102A7C007B68B3F1804F03D07B68224A934208D124
:102A8C00FB6823F07003FB603B685B68FA681343D8
:102A9C00FB607B681A4A934207D07B68B3F1804F86
:102AAC0003D07B68174A934208D1FB6823F4407328
:102ABC00FB603B68DB68FA681343FB60FB6823F040
:102ACC0080023B685B691343FB607B68FA681A60A1
:102ADC003B689A687B68DA623B681A687B689A6222
:102AEC007B68074A934203D13B681A697B681A6377
:102AFC007B6801225A6100BF1437BD4680BC704709
:102B0C00002C01400004004080B487B000AFF86096
:102B1C00B9607A60FB681B6A7B61FB681B6A23F0F7
:102B2C000102FB681A62FB689B693B613B6923F0FD
:102B3C00F0033B617B681B013A6913433B617B6982
:102B4C0023F00A037B617A69BB6813437B61FB68E2
:102B5C003A699A61FB687A691A6200BF1C37BD46F4
:102B6C0080BC704780B487B000AFF860B9607A6001
:102B7C00FB681B6A23F01002FB681A62FB689B69F6
:102B8C007B61FB681B6A3B617B6923F470437B614F
:102B9C007B681B037A6913437B613B6923F0A003B9
:102BAC003B61BB681B013A6913433B61FB687A6963
:102BBC009A61FB683A691A6200BF1C37BD4680BC3B
:102BCC00704780B485B000AF786039607B689B68D3
:102BDC00FB60FB6823F07003FB603A68FB681343EF
:102BEC0043F00703FB607B68FA689A6000BF1437F8
:102BFC00BD4680BC704780B487B000AFF860B96048
:102C0C007A603B60FB689B687B617B6923F47F4344
:102C1C007B613B681A027B681A43BB6813437A6971
:102C2C0013437B61FB687A699A6000BF1C37BD4611
:102C3C0080BC704780B485B000AF786039607B6829
:102C4C0093F83C30012B01D1022341E07B68012237
:102C5C0083F83C207B68022283F83D207B681B684C
:102C6C005B68FB607B681B689B68BB60FB6823F040
:102C7C007003FB603B681B68FA681343FB607B685E
:102C8C001B68FA685A607B681B68144A934209D027
:102C9C007B681B68B3F1804F04D07B681B68104ABB
:102CAC0093420CD1BB6823F08003BB603B685B682C
:102CBC00BA681343BB607B681B68BA689A607B6810
:102CCC00012283F83D207B68002283F83C200023FE
:102CDC0018461437BD4680BC704700BF002C01401D
:102CEC000004004080B483B000AF786000BF0C37A4
:102CFC00BD4680BC704780B483B000AF786000BF25
:102D0C000C37BD4680BC704770B500260C4D0D4C81
:102D1C00641BA410A64209D100F022F800260A4D2B
:102D2C000A4C641BA410A64205D170BD55F8043B97
:102D3C0098470136EEE755F8043B98470136F2E721
:102D4C00A42D0008A42D0008A42D0008A82D00080F
:102D5C0003460244934200D1704703F8011BF9E784
:102D6C00F8B500BFF8BC08BC9E467047F8B500BF6C
:082D7C00F8BC08BC9E4670473C
:102D840002030405060708090A0B0C0D0E0F1010A8
:102D94000000000000000000010203040607080907
:042DA40031010008F1
:042DA8000D01000811
:102DAC000100000001000000010000000100000013
:102DBC000100000001000000010000000100000003
:102DCC0001000000010000000100000001000000F3
:102DDC00102700000024F400100000000100000087
:04000005080016FDDC
:00000001FF
